:101141000A20424720566F6C74616765203D202557
:1011510065000A2056444420766F6C7461676520EF
:051161003D20256500A2
:08116600021200000218000053
:100EA900A2AF920CC2AF75C7AA75C755439F01A2DD
:100EB9000C92AF75AF0475A60DE4F5A7A2AF920C1D
:100EC900C2AF75C7AA75C75543A401A20C92AFADAD
:100ED900AEED54F0F52453050F75A60CE4F5A7A261
:100EE900AF920CC2AF75C7AA75C75543A401A20C2E
:100EF90092AFAFAEEF75F010A47C002DFDEC35F08C
:100F0900FC1202298F0B8E0A8D098C08E4FFFE7DE5
:100F1900407C40AB0BAA0AA909A80812007EE4FB91
:100F2900FA798078401201878F178E168D158C14E7
:100F3900A2AF920CC2AF75C7AA75C755539FFEA23F
:030F49000C92AF58
:010F4C002282
:100C9F00120EA9A2AF920CC2AF75C7AA75C755E4C1
:100CAF00F591A20C92AF53E8F043E80853E8F843EC
:100CBF00E10143E13043E20E43A210A2AF920CC216
:100CCF00AF75C7AA75C755F591A20C92AFC2EFA227
:100CDF00AF920CC2AF75C7AA75C755F591A20C920A
:100CEF00AFD2EE30EFFD74002523F582740035226C
:100CFF00F583E5C3F074052523F58274003522F5DD
:100D0F0083E5C2F0AFC3EF75F010A4ADC27C002D28
:100D1F00FDEC35F0FC120229AB07AA06A905A804C1
:100D2F00E4FFFE7D807C45120187AB17AA16A9153B
:100D3F00A81412007E8F0F8E0E8D0D8C0C7F061255
:100D4F000DB2A2AF920CC2AF75C7AA75C755E4F525
:100D5F0091A20C92AF53B1BF53B2BF752801F52CBE
:100D6F00752BC2752A01F529FF7E367D6E7C011227
:100D7F000B32D299D2097BFF7A11794185172A85D7
:100D8F0016298515288514271207257BFF7A1179D7
:100D9F0053850F2A850E29850D28850C27120725C7
:020DAF0080FEC4
:010DB100221F
:100DB200A2AF920CC2AF75C7AA75C755439F01A2D5
:100DC2000C92AFE4F591EF24F9600C14600E24024A
:100DD200700D75A638800875A630800375A630E4BC
:100DE200F5A775AF04A2AF920CC2AF75C7AA75C7BB
:100DF2005543A401A20C92AFAEAE05A6A2AF920CCF
:100E0200C2AF75C7AA75C75543A401A20C92AFA978
:100E1200AEEF24F8706DEE25E0FFE954012FFF5488
:100E2200C0FDEF543FFC74F22FFF75AF0C75A601A5
:100E3200E4F5A7A2AF920CC2AF75C7AA75C7554316
:100E4200A401A20C92AFABAEEB644B600EABAEEB67
:100E520064526007ABAEEB64537024ECC3940F741E
:100E62008094805016EDFB6440600AEB648060055C
:100E7200EB64C0700A74F22FFF800474FC2FFFEF42
:100E8200C313FE75C7AA75C7558E8475C7AA75C7E1
:100E9200558985A2AF920CC2AF75C7AA75C75553C3
:060EA2009FFEA20C92AFBE
:010EA8002227
:10106400EF24FD60121460282402704B7F021200EA
:10107400267F02120FE7227F03120FE7A2AF920C22
:10108400C2AF75C7AA75C7555397DFA20C92AF229A
:101094007F021200267F02120FE77F041200267FD0
:1010A40004120FE7A2AF920CC2AF75C7AA75C75559
:0810B4005397DFA20C92AF225A
:10002600EF24FC60222402702FA2AF920CC2AF759F
:10003600C7AA75C755439720A20C92AFE59644DF31
:1000460064DF701480F62275C7AA75C7554397C03A
:09005600E59644F764F760F82216
:1010F000E4F591EF24FC60182402701DA2AF920C5D
:10110000C2AF75C7AA75C7555397DFA20C92AF221D
:0A11100075C7AA75C75553973F2213
:100FE700E4F591A2AF920CC2AFEF24FD602F14601D
:100FF7005424027063A2AF920CC2AF75C7AA75C71B
:10100700555396FBA20C92AFA2AF920CC2AF75C715
:10101700AA75C7555396FDA20C92AF803BA2AF921B
:101027000CC2AF75C7AA75C755439604A20C92AFF9
:10103700A2AF920CC2AF75C7AA75C7555396FDA24A
:101047000C92AF8013A2AF920CC2AF75C7AA75C737
:0D10570055439608A20C92AFA20C92AF2256
:04116E00C109C10AE8
:03002300020003D5
:10000300C091309807D20A85991DC298309905206E
:070013000902C299D09132ED
:03007B0002005F21
:10005F00C09130F807859A1ED20BC2F830F90520EF
:07006F000902C2F9D0913231
:100B32008F278E268D258C24E5281460521470038D
:100B4200020C2424026003020C9E759850438920F3
:100B5200438780438E10A2AF920CC2AF75C7AA75AD
:100B6200C755E4F591A20C92AF53C4DF7B10FAF99A
:100B7200F8AF27AE26AD25AC241205DAAB2CAA2B92
:100B8200A92AA8291205DAEFF404F58DD28E22756E
:100B9200985043878053C4F8A2AF920CC2AF75C776
:100BA200AA75C755E4F591A20C92AF43C4207B10FD
:100BB200FAF9F8AF27AE26AD25AC241205DAAB2C34
:100BC200AA2BA92AA8291205DAC3E49FFFE49EFEF4
:100BD20074019DFDE49CFC780812067A8FC6E47BC2
:100BE20010FAF9F8AF27AE26AD25AC241205DAAB20
:100BF2002CAA2BA92AA8291205DAC3E49FFFE49E96
:100C0200FE74019DFDE49CFCEFE48FC5A2AF920C43
:100C1200C2AF75C7AA75C755F591A20C92AF43C46E
:100C2200082275F85075C480E47B10FAF9F8AF27F2
:100C3200AE26AD25AC241205DAAB2CAA2BA92AA824
:100C4200291205DAC3E49FFFE49EFE74019DFDE4D0
:100C52009CFC780812067A8FC6E47B10FAF9F8AF8A
:100C620027AE26AD25AC241205DAAB2CAA2BA92A75
:100C7200A8291205DAC3E49FFFE49EFE74019DFDDC
:100C8200E49CFCEFE48FC5A2AF920CC2AF75C7AA79
:0D0C920075C755F591A20C92AF43C408221E
:0D117300EF1460060470058D99228D9A22FC
:1010BC00A2AF920CC2AF75C7AA75C755E4F591A241
:1010CC000C92AF53B1BF53B2BFF528F52C752BC2A0
:1010DC00752A01F529FF7E367D6E7C01120B32D20A
:0410EC0099D209226A
:03000000020F4D9F
:100F4D00787FE4F6D8FD9000007FFF7E03E4F0A3E8
:0A0F5D00DFFCDEFA75813F020FA2EF
:10007E00EC4D6011E8497017ED33EC3304600DE47C
:10008E00FCFFFEFD22E933E8330470F802029712FA
:10009E00026258046009E4CC2481500628500902FB
:1000AE0002A128400302029EC0E0EB4A7044B980D0
:1000BE0006D0E0FB02028DEF4E701CBD8008EBFFF8
:1000CE00EAFEE9FD80EBE98DF0A4FEE5F0020167A2
:1000DE00E9CDF9EAFEEBFFEF89F0A4FCE5F0CE895D
:1000EE00F0A42EFFE435F0CD89F0A42DFEE435F01A
:1000FE008067EF4E7005BD80D780C3EF8BF0A4AC48
:10010E00F0EE8BF0A42CFCE435F0F8EF8AF0A42C82
:10011E00E5F038FCE433CB8DF0A42CFCE5F03BF895
:10012E00EE8AF0A42CFCE5F038F8E433CF89F0A485
:10013E002CFCE5F038CF3400CE89F0A42FFFE5F08B
:10014E003EFEE433C98DF0A42EFEE5F039CD8AF0E3
:10015E00A42FFFE5F03EFEE43DFD33D0E0FB50075B
:10016E000BBB000F0202A1EC2CFCEF33FFEE33FEB3
:06017E00ED33FD020279E1
:100184000202A1EC5D046005E859047003020297C1
:10019400120262580460F6EC4860F2EC7004FDFE52
:1001A400FF22C860DB2481C85009C398600250064E
:1001B40002029E9850CAF582E9294B4A7005AB8227
:1001C40002028D75F0007C1A7880C3EF9BEE9AEDE5
:1001D40099400DC3EF9BFFEE9AFEED99FDE842F0C6
:1001E400DC23ACF0D0E0FFD0E0FED0E0FDAB822019
:1001F400E7101BEB60BAEC2CFCEF33FFEE33FEEDA3
:1002040033FD020279E803F830E705C0F075F00029
:10021400EF2FFFEE33FEED33FD40B830E7C280AA86
:1002240075F020800E75F010800575F0087D007E55
:10023400007F003392D530D50312066CEC334010A6
:10024400EF33FFEE33FEED33FDEC33FCD5F0ED225E
:0E025400E5F0247EA2D513CC92E7CDCEFF229A
:1006C300E53B2427F8E6053B227824300702782708
:1006D300E475F00112068D0205462000EB7F2ED251
:1006E300008018EF540F2490D43440D4FF30040B0F
:1006F300EF24BFB41A0050032461FFE53C600215E8
:100703003C053FE53F7002053E30070D7824E47554
:10071300F00112068DEF02058C02111A7403D20741
:100723008003E4C207F53B8B248A258926E4F53C44
:10073300F53EF53FE53C60077F201206FE80F57528
:100743003DFFC201C200C202C203C205C206C20803
:100753001206CCFF700D3007057F0012070FAF3F65
:10076300AE3E22B4255FC2D5C2041206CCFF24D00C
:10077300B40A00501A75F00A783C30D50508B6FF64
:100783000106C6A426F620D5047002D20380D9241C
:10079300CFB41A00EF5004C2E5D2040209FCD2011F
:1007A30080C6D20080C0D20280BCD2D580BAD20526
:1007B30080B47F201206FE2002077401B53C00407E
:1007C300F11206C3FF1206FE020737D208D20680D3
:1007D300951206C3FB1206C3FA1206C3F94A4B70FD
:1007E3000679F37A0A7BFF20022EE53C602A7E001D
:1007F3008E8275830012055F60060EEE653D70F014
:10080300C2D5EBC0E0EAC0E0E9C0E0EE120A5CD07A
:10081300E0F9D0E0FAD0E0FB120546FF60AAEBC096
:10082300E0EAC0E0E9C0E01206FED0E02401F9D01E
:10083300E03400FAD0E0FBE53D0460DCD53DD9802F
:1008430087D20280A2120A3F60F7E53D70010412CD
:1008530002ACA93D600DE53D600914F53D120AE6C1
:10086300EF60F3EA30E702F404C3995077EAF42522
:100873003D0430E701E404F53D800D120A3F60C1F9
:10088300EA053D253D1202ACEA783AF630E701E489
:10089300253D04D53D0420050114120A5CE4C0E0A3
:1008A300120AE6783AE6601320E70714F61206E622
:1008B300802204F6D0E014C0E07F001206E6E53D96
:1008C30060071206DD153D800B3005031206DDD0EF
:1008D300E0020737D0E00480C5120A3F60A0E53D7F
:1008E300041202AC783AEAF6E53D20050260010401
:0508F3002404120A5C60
:1008F80074FF04C0E0120AE61206E6E53D20050290
:1009080060031206DDD0E0B53DE87F451206F078B9
:100918003AE67F2B30E7047F2DF404C0E01206FE90
:10092800D0E075F00A84C0F01206E7D0E01206E7BE
:10093800020737791080027908C206C2088008D2F7
:10094800D5790A8004790AC2D5E53D047002F53DDF
:10095800E4FAFDFEFF1206C3FC7B08200113120611
:10096800C3FD7B1030000A1206C3FE1206C3FF7BCC
:1009780020EC3382D592D55013C3E43000069FFF94
:10098800E49EFEE42001039DFDE49CFCE4CBF8C258
:1009980001EC700CCFCECDCCE824F8F870F38017BA
:1009A800C3EF33FFEE33FEED33FDEC33FCEB33FBEB
:1009B800994002FB0FD8E9EB300105F8D0E0C448B4
:1009C800B201C0E00AEC4D4E4F78207B0070C2EABD
:1009D800B53D0040BCC0E0120A5ED0F0D0E0200176
:1009E80004C4C0E0C4B201C0F01206E7D0F0D5F0EC
:1009F800EB02073712069D07D453093B5807A54C4D
:100A080007A142093F4F09474409474907BA430923
:100A18004D55087E4608DC450848470B135007A982
:100A28002D07AD2E07D02B07B12307CE200AFC2AAD
:100A3800076948000007C8E53DB4FF03753D061285
:100A480006C3FC1206C3FD1206C3FE1206C3FF78D6
:100A5800330202DB790AA2D5200314300509B91044
:100A6800020404B9080104A2D5200602500104209A
:100A780002689202B53C005034C0E07F2030031970
:100A88007F30A20272067205500F120AB5C202C266
:100A980006C205C2087F30800F300503E9C0E012A6
:100AA80006FE300503D0E0F9D0E0B53CCC300517A0
:100AB8007F30B9100C1206FE7F583004077F78800B
:100AC80003B908031206FE3002057F2D0206FE7FD9
:100AD800202008F87F2B2006F322920280CF7F0087
:100AE800B4070050052433F8E6FF22286E756C6CB5
:100AF8002900D2011206C33001F8C201783C30D572
:100B08000108F60207692D504349581206C3240309
:100B1800B405004001E4900B0E931206EF743A12EC
:0A0B280006EFD203753C0402093BFE
:10026200E9D2E7C933E833F892D5EDD2E7CD33ECE2
:0702720033FC5002B2D5225B
:10027900EC30E7100FBF000C0EBE00080DBD0004E6
:100289000BEB6014A2D5EB13FCED92E7FD2274FF92
:10029900FCFDFEFF22E480F8A2D574FF13FC7D80EB
:0302A900E480EFFF
:1002AC00F920E72824F950037907E4F42402FB1819
:1002BC00DBFDE624FB5014E9600DE4F618E604F6C9
:0F02CC00B40A08E4F6D9F57401F60A22C2D52265
:1002DB00ED33EC3392D5FA602AB4FF33EDC2E77BF2
:1002EB00FF60067A037900E4227A03790920D504AA
:1002FB007A037904224E614E002B494E46002D495C
:10030B004E4600E47A08F608DAFC7B00740722E814
:10031B00C0E0ECC0E0EDC0E0EEC0E0EFC0E0EA759D
:10032B00F010A4CAABF075F04DA42BFBE435F0FC38
:10033B00EA2410FAEB34C5FBEC34D9FCEDC2E7FF31
:10034B0075F056A4F42411C5F0F434C58FF0A42A2B
:10035B00E5F03BE43CF620E714120506D0E0FFD0B5
:10036B00E0FED0E0FDD0E0FC1201878014F4041213
:10037B000506D0E0FFD0E0FED0E0FDD0E0FC12009F
:10038B007ED0E0F8E6FAEDD2E7CD33EC332482FBF6
:10039B00E4C3CF33CFCE33CECD33CD33DBF37B07BB
:1003AB0075F00A846004F6081B0AE5F0F6088FF076
:1003BB00740AA4FFACF08EF0740AA42CFEACF050BF
:1003CB00010C8DF0740AA42CFDE435F0F608DBDE8D
:0303DB0074072282
:1003DE00020297E86480F8E933E83360110460F0B4
:1003EE00ED33EC337009E8FCE9FDEAFEEBFF220485
:1003FE0060DED3EB9FEA9EE99DE8C2E78CF0C2F780
:10040E0095F0400CE8CCF8E9CDF9EACEFAEBCFFB4B
:10041E0012026285D0F05804700320D5B3E8047040
:10042E00075002B2D50202A192D5EC0460F7E4CCDB
:10043E00C0E0C398F8603B94186008400DD0E0FB14
:10044E00020279E4FBFAC9FC8028E830E406E4C92C
:10045E00FBE4CAFCE830E305E4C9CACBFCE8540768
:10046E006010F8C3E913F9EA13FAEB13FBEC13FC73
:10047E00D8F130F52FC3E49CFCEF9BFFEE9AFEED16
:10048E0099FDD0E0FBEF4E4D4C701222DB030202C1
:10049E009EEC2CFCEF33FFEE33FEED33FDED30E73B
:1004AE00EB020279EF2BFFEE3AFEED39FDD0E0FBC9
:1004BE0050130BBB00030202A1ED13FDEE13FEEF72
:0804CE0013FFEC13FC0202799C
:1004D6003F8000004120000042C80000447A00002E
:1004E600461C400047C35000497424004B189680B0
:1004F6004CBEBC205A0E1BCA6753C21C749DC5AEA7
:10050600FB60065407601C2323120534EB54386045
:100516000912052012052F12007EECF8EDF9EEFA0D
:10052600EFCB22EB12052F80F1543803241C9004E4
:10053600D6FE93FC0EEE93FD0EEE930ECE93FF22A7
:100F6700020C9FE493A3F8E493A34003F68001F2F5
:100F770008DFF48029E493A3F85407240CC8C3338B
:100F8700C4540F4420C8834004F456800146F6DF5A
:100F9700E4800B0102040810204080901166E47E73
:100FA700019360BCA3FF543F30E509541FFEE4934F
:100FB700A360010ECF54C025E060A840B8E493A316
:100FC700FAE493A3F8E493A3C8C582C8CAC583CA41
:100FD700F0A3C8C582C8CAC583CADFE9DEE780BEF9
:01117200007C
:10054600BB010689828A83E0225002E722BBFE02B3
:09055600E32289828A83E49322E6
:10055F00BB010CE58229F582E5833AF583E0225051
:10056F0006E92582F8E622BBFE06E92582F8E2229B
:0D057F00E58229F582E5833AF583E49322B5
:10058C00BB010689828A83F0225002F722BBFE014E
:02059C00F32248
:10059E0075F008758200EF2FFFEE33FECD33CDCC14
:1005AE0033CCC58233C5829BED9AEC99E582984097
:1005BE000CF582EE9BFEED9AFDEC99FC0FD5F0D674
:1005CE00E4CEFBE4CDFAE4CCF9A88222B800C1B99E
:1005DE000059BA002DEC8BF084CFCECDFCE5F0CBDC
:1005EE00F97818EF2FFFEE33FEED33FDEC33FCEB15
:1005FE0033FB10D703994004EB99FB0FD8E5E4F9D0
:10060E00FA227818EF2FFFEE33FEED33FDEC33FCBC
:10061E00C933C910D7059BE99A4007EC9BFCE99AB0
:10062E00F90FD8E0E4C9FAE4CCFB2275F010EF2FF5
:10063E00FFEE33FEED33FDCC33CCC833C810D707F5
:10064E009BEC9AE899400AED9BFDEC9AFCE899F830
:0E065E000FD5F0DAE4CDFBE4CCFAE4C8F922C3
:0E066C00C3E49FFFE49EFEE49DFDE49CFC229F
:10067A00E8600FECC313FCED13FDEE13FEEF13FF5E
:03068A00D8F12282
:10068D00FAE6FB0808E6F925F0F618E6CA3AF6226E
:10069D00D083D082F8E4937012740193700DA3A3EC
:1006AD0093F8740193F5828883E473740293686000
:0606BD00EFA3A3A380DF00
:10111A00EFB40A07740D121125740A309811A899B0
:10112A00B8130CC2983098FDA899C298B811F63035
:07113A0099FDC299F599220D
:00000001FF
