:100000000207A4C09130F80853F8FE859A23D20B5A
:1000100030F90620090353F8FDD09132C109C10A15
:0100200000DF
:100023000200667F061206871208CF12083E7BFF86
:100033007A0879F41200E0E4F508C3E508940C7437
:10004300809480501B7BFF7A0879FE74052508F5A0
:1000530082E43400F583E0F50C1200E0050880DA51
:1000630080FE22C091309808D20A8599225398FEC7
:03007300D09132F7
:10007B00020003E518240CF8E6051822780930076E
:10008B0002780CE475F0011205130204BB2000EB9F
:10009B007F2ED2008018EF540F2490D43440D4FF1D
:1000AB0030040BEF24BFB41A0050032461FFE51991
:1000BB0060021519051CE51C7002051B30070D7835
:1000CB0009E475F001120513EF0205010208A8748B
:1000DB0003D2078003E4C207F5188B098A0A890B40
:1000EB00E4F519F51BF51CE51960077F201200B923
:1000FB0080F5751AFFC201C200C202C203C205C25B
:10010B0006C208120087FF700D3007057F00120032
:10011B00CAAF1CAE1B22B4255FC2D5C20412008726
:10012B00FF24D0B40A00501A75F00A781930D5059F
:10013B0008B6FF0106C6A426F620D5047002D2032A
:10014B0080D924CFB41A00EF5004C2E5D2040202C6
:10015B00CAD20180C6D20080C0D20280BCD2D58068
:10016B00BAD20580B47F201200B92002077401B502
:10017B00190040F112007EFF1200B90200F2D20802
:10018B00D206809512007EFB12007EFA12007EF9D9
:10019B004A4B7006799B7A037BFF20022EE5196090
:1001AB002A7E008E827583001204D460060EEE65E3
:1001BB001A70F0C2D5EBC0E0EAC0E0E9C0E0EE1285
:1001CB000311D0E0F9D0E0FAD0E0FB1204BBFF60E2
:1001DB00AAEBC0E0EAC0E0E9C0E01200B9D0E0242D
:1001EB0001F9D0E03400FAD0E0FBE51A0460DCD56D
:1001FB001AD980877BFF7A03790DD202809C791004
:10020B0080027908C206C2088008D2D5790A800418
:10021B00790AC2D5E51A047002F51AE4FAFDFEFF5D
:10022B0012007EFC7B0820011312007EFD7B103038
:10023B00000A12007EFE12007EFF7B20EC3382D57B
:10024B0092D55013C3E43000069FFFE49EFEE420DA
:10025B0001039DFDE49CFCE4CBF8C201EC700CCFD8
:10026B00CECDCCE824F8F870F38017C3EF33FFEE54
:10027B0033FEED33FDEC33FCEB33FB994002FB0F0C
:10028B00D8E9EB300105F8D0E0C448B201C0E00A70
:10029B00EC4D4E4F78207B0070C2EAB51A0040BC83
:1002AB00C0E0120313D0F0D0E0200104C4C0E0C4BE
:1002BB00B201C0F01200A2D0F0D5F0EB0200F212A6
:1002CB000523018F5302095801604C015C42020D5A
:1002DB004F021544021549017543021B5501FF4698
:1002EB0001FF4501FF4703BB5001642D01682E013F
:1002FB008B2B016C2301892003A42A0124480000C5
:10030B0001833F3F3F00790AA2D520031430050932
:10031B00B910020404B9080104A2D5200602500149
:10032B00042002689202B519005034C0E07F2030DF
:10033B0003197F30A20272067205500F12036AC2B4
:10034B0002C206C205C2087F30800F300503E9C028
:10035B00E01200B9300503D0E0F9D0E0B519CC308C
:10036B0005177F30B9100C1200B97F583004077F86
:10037B00788003B908031200B93002057F2D020003
:10038B00B97F202008F87F2B2006F322920280CF22
:10039B00286E756C6C2900D20112007E3001F8C2F8
:1003AB0001781930D50108F60201242D5043495824
:1003BB0012007E2403B405004001E49003B69312AF
:1003CB0000AA743A1200AAD2037519040202097525
:1003DB00F008758200EF2FFFEE33FECD33CDCC331B
:1003EB00CCC58233C5829BED9AEC99E58298400C83
:1003FB00F582EE9BFEED9AFDEC99FC0FD5F0D6E461
:10040B00CEFBE4CDFAE4CCF9A88222B800C1B90046
:10041B0059BA002DEC8BF084CFCECDFCE5F0CBF9A7
:10042B007818EF2FFFEE33FEED33FDEC33FCEB339F
:10043B00FB10D703994004EB99FB0FD8E5E4F9FACD
:10044B00227818EF2FFFEE33FEED33FDEC33FCC9B2
:10045B0033C910D7059BE99A4007EC9BFCE99AF945
:10046B000FD8E0E4C9FAE4CCFB2275F010EF2FFFB4
:10047B00EE33FEED33FDCC33CCC833C810D7079B1E
:10048B00EC9AE899400AED9BFDEC9AFCE899F80F81
:10049B00D5F0DAE4CDFBE4CCFAE4C8F922E8600F3E
:1004AB00ECC313FCED13FDEE13FEEF13FFD8F1229B
:1004BB00BB010689828A83E0225002E722BBFE023F
:1004CB00E32289828A83E49322BB010CE58229F51E
:1004DB0082E5833AF583E0225006E92582F8E6228D
:1004EB00BBFE06E92582F8E222E58229F582E58347
:1004FB003AF583E49322BB010689828A83F022506A
:10050B0002F722BBFE01F322FAE6FB0808E6F92507
:10051B00F0F618E6CA3AF622D083D082F8E493704C
:10052B0012740193700DA3A393F8740193F5828851
:10053B0083E4737402936860EFA3A3A380DF8F0C33
:10054B008E0B8D0A8C09E4F591E50D14604814703F
:10055B00030206172402600302068675985043892E
:10056B0020438780E4F591438E10F59153C4DF7BD4
:10057B0010FAF9F8AF0CAE0BAD0AAC09120416ABBE
:10058B0011AA10A90FA80E120416EFF404F58D434F
:10059B00884043A8102275985043878053C4F8E4D1
:1005AB00F59143C4207B10FAF9F8AF0CAE0BAD0AF2
:1005BB00AC09120416AB11AA10A90FA80E1204163F
:1005CB00C3E49FFFE49EFE74019DFDE49CFC780850
:1005DB001204A88FC6E47B10FAF9F8AF0CAE0BAD82
:1005EB000AAC09120416AB11AA10A90FA80E12041B
:1005FB0016C3E49FFFE49EFE74019DFDE49CFCEF9B
:10060B00E48FC5F59143C40843A8102275F85075C3
:10061B00C480E47B10FAF9F8AF0CAE0BAD0AAC0951
:10062B00120416AB11AA10A90FA80E120416C3E4DC
:10063B009FFFE49EFE74019DFDE49CFC7808120470
:10064B00A88FC6E47B10FAF9F8AF0CAE0BAD0AAC71
:10065B0009120416AB11AA10A90FA80E120416C387
:10066B00E49FFFE49EFE74019DFDE49CFCEFE48F90
:10067B00C5F59143C408F591439C0122A907E4F504
:10068B0091E924F9600C14600E2402700D75A638E4
:10069B00800875A630800375A630E4F591A2AF9261
:1006AB000CC2AF75C7AA75C755439F01A20C92AF79
:1006BB00F5A775AF04F591A2AF920CC2AF75C7AA9F
:1006CB0075C75543A401A20C92AFADAE05A6F5912B
:1006DB00A2AF920CC2AF75C7AA75C75543A401A2AE
:1006EB000C92AFACAEF591A2AF920CC2AF75C7AA8C
:1006FB0075C755539FFEA20C92AFE924F87070EDAD
:10070B0025E0FFE433FEEC54017A002FFFEA3EFEB6
:10071B0074F22FFF74FF3EFE75AF0C75A601E4F566
:10072B00A7F591A2AF920CC2AF75C7AA75C7554377
:10073B00A401A20C92AFABAEEB644B600EABAEEB75
:10074B0064526007ABAEEB6453701AED543FC39425
:10075B0007E49400500A74F62FFF74FF3EFE8005E9
:10076B00EF1F70011EEF5401FCEEC313EF13FD7569
:10077B00C7AA75C7558D8475C7AA75C7558C85E4EF
:10078B00F591A2AF920CC2AF75C7AA75C755539F0F
:10079B00FEA20C92AF5387EF22787FE4F6D8FD9040
:1007AB0000007FFF7E03E4F0A3DFFCDEFA758123FC
:1007BB000207F9020026E493A3F8E493A34003F69F
:1007CB008001F208DFF48029E493A3F85407240C8A
:1007DB00C8C333C4540F4420C8834004F45680016B
:1007EB0046F6DFE4800B01020408102040809000E5
:1007FB001CE47E019360BCA3FF543F30E509541FFA
:10080B00FEE493A360010ECF54C025E060A840B86E
:10081B00E493A3FAE493A3F8E493A3C8C582C8CAEC
:10082B00C583CAF0A3C8C582C8CAC583CADFE9DEBF
:10083B00E780BEE4F591A2AF920CC2AF75C7AA7563
:10084B00C755439F01A20C92AF75A620F5A775AFB4
:10085B0004FFEFC3940C74809480502AE4F5AEF53A
:10086B0091A2AF920CC2AF75C7AA75C75543A4012D
:10087B00A20C92AF74052FF582E43400F583E5AE3C
:10088B00F005A60F80CCE4F591A2AF920CC2AF7528
:10089B00C7AA75C755539FFEA20C92AF22EFB40A9D
:1008AB0007740D1208B3740A309811A899B8130C79
:1008BB00C2983098FDA899C298B811F63099FDC22C
:1008CB0099F59922E4F59153B1BF53B2BFF50DF5EC
:1008DB00117510C2750F01F50EFF7E367D6E7C0112
:1008EB00120549439802D209220A20554349442054
:0A08FB003D200020307825627800CF
:00000001FF
