:10002600A2AF9200C2AF75C7AA75C755439F01A27A
:100036000092AF1206E712055612080DC20175218D
:1000460003752220C203200403020484C2AF2003E6
:100056000302011D752A08AF2AC3EF9440748094E9
:100066008040030200FC75AF21AF39EFF5A6E538F5
:10007600F5A7AF2A74002FF582E43400F583E0F586
:10008600AEA2AF9200C2AF75C7AA75C75543A40109
:10009600A20092AFE4F5AFAF2A74002FF582E434E4
:1000A60000F583E065AE600280FEAF9FEF644370AB
:1000B6000280FEAF2A74002FF582E43400F583E057
:1000C600FFE4FCFDFEE5312FF531EE3530F530ED80
:1000D600352FF52FEC352EF52E0539E5397002054D
:1000E60038E539B52C0BE538B52B06C203D20180AD
:1000F60005052A02005D1204DEE531FFE4900048A2
:10010600EFF0AF31AE30AD2FAC2E78081207B0EF5E
:10011600E4A3EFF0120775900000E01207C302F3A4
:10012600A0020DA101E3A20180A30143A40153A6ED
:1001360004BCAB0143AE0162B10000047D1204DED3
:10014600120775E4F521F522C20102047D1204DED0
:100156009000487428F012077502047D1205C51236
:1001660004DE900048E52DF0A3E524F0A3E533F086
:10017600A3E529F012077502047DA2AF9200C2AF73
:1001860075C7AA75C75543A501A20092AF75AEFF04
:1001960075AF22E4F538F539AF39EF75F080A4F57F
:1001A600A6AE38E5397807C333CE33CED8F9EEF5A7
:1001B600A7A2AF9200C2AF75C7AA75C75543A401DF
:1001C600A20092AF0539E53970020538E539647049
:1001D600453870C41204DE12077502047D12062F1C
:1001E6001204DE900048E534F0A3E535F0A3E536C9
:1001F600F0A374FFF0A3E537F0A374FFF0A3F0A318
:10020600F012077502047D900008E0F53AA3E0F5C8
:100216003BA3E0F53C90000CE0F53DA2AF9200C296
:10022600AF75C7AA75C75543A504A20092AF75AFAF
:10023600E2E4F5A6F5A775AEFFA2AF9200C2AF75D0
:10024600C7AA75C75543A401A20092AF75AFE18551
:100256003AAEA2AF9200C2AF75C7AA75C75543A4FE
:1002660001A20092AF853BAE75A601A2AF9200C275
:10027600AF75C7AA75C75543A401A20092AF75A66C
:1002860002853CAEA2AF9200C2AF75C7AA75C7552C
:1002960043A401A20092AF75A604853DAEA2AF921B
:1002A60000C2AF75C7AA75C75543A401A20092AF95
:1002B600A2AF9200C2AF75C7AA75C75553A5FBA2D8
:1002C6000092AF12062F1204DE900048E534F0A328
:1002D600E535F0A3E536F0A374FFF0A3E537F0A308
:1002E60074FFF0A3F0A3F012077502047DA2AF928B
:1002F60000C2AF75C7AA75C75543A501A20092AF44
:1003060075AEFF75AF22E4900082F0A3F09000086E
:10031600E0FF900082E4F0A3EFF0900009E0FE9089
:100326000082E04EF0A3E0F0E4F52BF52C90000CF3
:10033600E0752B00F52CA3E0FEE4EE422B90008244
:10034600E0FCA3E0252CFEE52B3C900080F0A3CE3C
:10035600F08C38753900D3900081E0953990008093
:10036600E095384029AF39EFF5A6E538F5A7A2AFF5
:100376009200C2AF75C7AA75C75543A401A20092E1
:10038600AF74802539F539E43538F53880C8E4F599
:1003960031F530F52FF52E900082E0F538A3E0F523
:1003A60039D203752A10AF2AC3EF94407480948023
:1003B600400302045C75AF21AF39EFF5A6E538F5C9
:1003C600A7AF2A74002FF582E43400F583E0F5AE7A
:1003D600A2AF9200C2AF75C7AA75C75543A401A2C2
:1003E6000092AFE4F5AFA2AF9200C2AF75C7AA758F
:1003F600C75543A401A20092AFAF2A74002FF5821D
:10040600E43400F583E065AE600280FEAF9FEF64E2
:1004160043700280FEAF2A74002FF582E43400F5A3
:1004260083E0FFE4FCFDFEE5312FF531EE3530F5D6
:1004360030ED352FF52FEC352EF52E0539E53970D3
:10044600020538E539B52C09E538B52B04C2038019
:1004560005052A0203AC1204DEE531FFE4900048EC
:10046600EFF0AF31AE30AD2FAC2E78081207B0EFFB
:10047600E4A3EFF0120775C204E4F532D2AF3001FF
:100486000300803220020302004CAF32C3EF9440D7
:1004960074809480500BAF32EF9400748094805037
:1004A6000FAF32D3EF944074809480500302004C17
:1004B600E4F53202004C12072EA2AF9200C2AF75CD
:1004C600C7AA75C755539FFEA20092AF75C7AA75F6
:0704D600C755759F8080FEF1
:0104DD0022FC
:1006E700E4F5A775A63875AF04A2AF9200C2AF753F
:1006F700C7AA75C75543A401A20092AFAFAE75A6AE
:1007070039A2AF9200C2AF75C7AA75C75543A401F6
:10071700A20092AFAEAE75C7AA75C7558F8475C7CD
:06072700AA75C7558E857E
:01072D0022A9
:10072E00E4F5A775A63075AF04A2AF9200C2AF75FF
:10073E00C7AA75C75543A401A20092AFAFAE75A666
:10074E0031A2AF9200C2AF75C7AA75C75543A401B7
:10075E00A20092AFAEAE75C7AA75C7558F8475C786
:06076E00AA75C7558E8537
:010774002262
:1005C50075AF0CE4F5A7F5A6A2AF9200C2AF75C74B
:1005D500AA75C75543A401A20092AF85AE2D75A695
:1005E50001A2AF9200C2AF75C7AA75C75543A40152
:1005F500A20092AF85AE2475A602A2AF9200C2AF4B
:1006050075C7AA75C75543A401A20092AF85AE333D
:1006150075A603A2AF9200C2AF75C7AA75C75543A9
:0A062500A401A20092AF85AE2922C5
:10062F0075AFC0E4F5A7F5A6A2AF9200C2AF75C72C
:10063F00AA75C75543A401A20092AF85AE3475A623
:10064F0001A2AF9200C2AF75C7AA75C75543A401E7
:10065F00A20092AF85AE3575A602A2AF9200C2AFCF
:10066F0075C7AA75C75543A401A20092AF85AE36D0
:10067F0075A604A2AF9200C2AF75C7AA75C755433E
:0A068F00A401A20092AF85AE37224D
:10080D00E4F58AF58CD28CA2AF9200C2AF75C7AA5F
:0F081D0075C755F591A20092AF43B710D2A9222B
:10055600A2AF9200C2AF75C7AA75C755E4F591A2BE
:100566000092AF53B1BF53B2BFA2AF9200C2AF75F4
:10057600C7AA75C755F591A20092AF43B18053B291
:100586007F75985043878053C4F8A2AF9200C2AFDC
:1005960075C7AA75C755F591A20092AF43C42075D9
:1005A600C6FF75C5F3A2AF9200C2AF75C7AA75C7DD
:0F05B60055F591A20092AF43C408D2ACD2AF2248
:1004DE00E4F528F527F526F525F52AAF2AC3EF947E
:1004EE004074809480502AAF2A74002FF582E43431
:1004FE0000F583E0FFE4FCFDFEE5282FF528EE3540
:10050E0027F527ED3526F526EC3525F525052A8028
:10051E00CAE528FFE4900040EFF0AF28AE27AD26E5
:10052E00AC2578081207B0EFE4A3EFF0900004E0DA
:10053E0004900044F0900005E0900045F0900044D7
:08054E00E07004A3E004F022B8
:10077500E4F52AAF2AC3EF944074809480502BC2CD
:1007850099AF2A74402FF582E43400F583E0F5999A
:100795003099FDA2AF9200C2AF75C7AA75C7554380
:0B07A500AA40A20092AF052A80C922E2
:0300230002069939
:10069900C0E0C083C082C0D075D000C007309813B5
:1006A900AF32053274002FF582E43400F583E59901
:1006B900F0C298309902C299AF32EF64017005C255
:1006C9000275235AAF32EF64407008D204F523C291
:0E06D90002F532D007D0D0D082D083D0E032EC
:03000B000207E900
:1007E900C0E0E52245216010E5221522700215219D
:1007F900E52245217002D201E5236005D52302D205
:0408090002D0E03207
:0300000002082CC7
:10082C00787FE4F6D8FD9000007FFF7E03E4F0A310
:0A083C00DFFCDEFA75813D020026A4
:1007B000E8600FECC313FCED13FDEE13FEEF13FF27
:0307C000D8F1224B
:1007C300D083D082F8E4937012740193700DA3A3C5
:1007D30093F8740193F5828883E4737402936860D9
:0607E300EFA3A3A380DFD9
:00000001FF
