:10064000A2AF9204C2AF75C7AA75C755E4F591A2CF
:100650000492AF43B10843B208A2AF9204C2AF758F
:10066000C7AA75C755F591A20492AF43B11043B222
:1006700010A2AF9204C2AF75C7AA75C75575910194
:10068000A20492AF43B108A2AF9204C2AF75C7AA49
:1006900075C755F591A20492AFA2AF9204C2AF758F
:1006A000C7AA75C755759101A20492AF43B110A2B4
:1006B000AF9204C2AF75C7AA75C755F591A204924F
:0706C000AF75BE02D2C62295
:10000300AFBDEF7014D203D2C4C2C3E5C044F760DE
:0A00130008C2C6D2C6C2C3C2C6228C
:10030800EF75F020A4FBAAF0D2C5C2C3E5C030E364
:10031800FBAFBDEF64086005D2030203E575BCA01E
:10032800C2C5C2C3E5C030E3FBAFBDEF64186005CA
:10033800D2030203E58ABCC2C3E5C030E3FBAFBD0C
:10034800EF64286005D2030203E5EBF5BCC2C3E500
:10035800C030E3FBAFBDEF64286004D203807ED2D7
:10036800C5C2C3E5C030E3FBAFBDEF64106004D283
:1003780003806AC2C575BCA1C2C3E5C030E3FBAF48
:10038800BDEF64406004D2038053E4FFEFC39420C0
:10039800748094805023D2C2C2C3E5C030E3FBAE60
:1003A800BDEE64506004D2038033E5BC6D6004D2B6
:1003B80003802A6305FF0F80D3C2C2C2C3E5C030E1
:1003C800E3FBAFBDEF64586004D2038010C2C3D210
:1003D800C4E5C044EF60061200033003F43003059F
:0503E800120003C20336
:0103ED0022ED
:1004CF00EF75F020A4FBAAF0D2C5C2C3E5C030E39C
:1004DF00FBAFBDEF64086005D20302059DC2C57571
:1004EF00BCA0C2C3E5C030E3FBAFBDEF641860052D
:1004FF00D20302059D8ABCC2C3E5C030E3FBAFBD8A
:10050F00EF64286005D20302059DEBF5BCC2C3E57D
:10051F00C030E3FBAFBDEF64286004D203806FE40B
:10052F00FFEFC3942074809480501A8DBCC2C3E532
:10053F00C030E3FBAEBDEE64286004D203804F638E
:10054F0005FF0F80DCD2C4C2C3E5C044EF600812C0
:10055F0000033003F48037D2C5C2C3E5C030E3FBDC
:10056F00AFBDEF64086004D2038023C2C575BCA081
:10057F00C2C3E5C030E3FBAFBDEF641870C7D2C490
:10058F00C2C3E5C044EF60061200033003F430032A
:06059F0005120003C20377
:0105A5002233
:1006C700A2AF9204C2AF75C7AA75C755E4F591A248
:1006D7000492AF53B1BF43B240750C01F510750FCB
:1006E700C2750E01F50DFF7E247DF4FC12007ED24B
:1006F70099D2001206407D55E4FF1204CF7D55E4E0
:10070700FF120308E4FD7F011204CFE4FD7F01120D
:1007170003087DAA7F021204CF7DAA7F0212030875
:100727007DFF7F031204CF7DFF7F031203087D0F38
:100737007FFF1204CF7D0F7FFF120308C299C2000B
:0207470080FE32
:02021200A9073A
:10021400E4F591E924F9600C14600924027008756E
:10022400A638800375A630A2AF9204C2AF75C7AAE0
:1002340075C755439F01A20492AFE4F5A775AF04B7
:10024400A2AF9204C2AF75C7AA75C75543A401A251
:100254000492AFADAE05A6A2AF9204C2AF75C7AA11
:1002640075C75543A401A20492AFACAEE924F8705B
:100274006FED25E0FFE433FEEC54017A002FFFEA32
:100284003EFE74F22FFF74FF3EFE75AF0C75A6019F
:10029400E4F5A7A2AF9204C2AF75C7AA75C75543C8
:1002A400A401A20492AFABAEEB644B600EABAEEB19
:1002B40064526007ABAEEB6453701BED543FC394C0
:1002C4000774809480500A74F62FFF74FF3EFE80FA
:1002D40005EF1F70011EEF5401FCEEC313EF13FD75
:1002E40075C7AA75C7558D8475C7AA75C7558C85FA
:1002F400A2AF9204C2AF75C7AA75C755539FFEA299
:030304000492AFB1
:0103070022D3
:10002600EF24FD6011146012240270357F0212075E
:10003600AB7F020207497F0380117F021207AB7F65
:10004600021207497F041207AB7F04120749A2AFC9
:100056009204C2AF75C7AA75C7555397DFA204921B
:02006600AF22C7
:1007AB00EF24FC60212402702EA2AF9204C2AF751D
:1007BB00C7AA75C755439720A20492AFE59644DFAD
:1007CB0064DF701380F675C7AA75C7554397C0E5EC
:0807DB009644F764F760F82270
:1007E300E4F591EF24FC60182402701DA2AF92047B
:1007F300C2AF75C7AA75C7555397DFA20492AF223C
:0A08030075C7AA75C75553973F2229
:10074900E4F591A2AF9204C2AFEF24FD60181460E2
:100759003924027048A2AF9204C2AF75C7AA75C7FF
:10076900555396FB800FA2AF9204C2AF75C7AA7505
:10077900C755439604A20492AFA2AF9204C2AF75C3
:10078900C7AA75C7555396FD800FA2AF9204C2AF91
:1007990075C7AA75C755439608A20492AFA20492D9
:0207A900AF227D
:04001D00C100C1015C
:03002300020827A9
:10082700C091309807D201859914C2983099052054
:070837000002C299D09132CA
:03007B0002083E3A
:10083E00C09130F807C2F8859A15D20230F905201A
:07084E000002C2F9D0913253
:10007E008F0B8E0A8D098C08E50C146056147003D4
:10008E0002016D2402600302020F7598504389200D
:10009E00438780438E10A2AF9204C2AF75C7AA7574
:1000AE00C755E4F591A20492AF53C4DF7B10FAF961
:1000BE00F8AF0BAE0AAD09AC0812042AAB10AA0FAA
:1000CE00A90EA80D12042AEFF404F58DD28ED2AC2F
:1000DE0002020F75985043878053C4F8A2AF920462
:1000EE00C2AF75C7AA75C755E4F591A20492AF4386
:1000FE00C4207B10FAF9F8AF0BAE0AAD09AC0812AA
:10010E00042AAB10AA0FA90EA80D12042AC3E49F4D
:10011E00FFE49EFE74019DFDE49CFC78081204BC75
:10012E008FC6E47B10FAF9F8AF0BAE0AAD09AC0836
:10013E0012042AAB10AA0FA90EA80D12042AC3E4AA
:10014E009FFFE48FC5A2AF9204C2AF75C7AA75C751
:10015E0055F591A20492AF43C408D2AC02020FA28D
:10016E00AF9204C2AF75C7AA75C755E4F591A20444
:10017E0092AF53B3BF53B4BFA2AF9204C2AF75C711
:10018E00AA75C755F591A20492AF43B10453B2FBC1
:10019E0075F85075C4807B10FAF9F8AF0BAE0AAD46
:1001AE0009AC0812042AAB10AA0FA90EA80D12044E
:1001BE002AC3E49FFFE49EFE74019DFDE49CFC783F
:1001CE00081204BC8FC6E47B10FAF9F8AF0BAE0A26
:1001DE00AD09AC0812042AAB10AA0FA90EA80D1275
:1001EE00042AC3E49FFFE48FC5A2AF9204C2AF7589
:1001FE00C7AA75C755F591A20492AF43C408439C94
:04020E0001D2AF2248
:10080D00EF14600C0470103098FDAE99C2988007FB
:09081D0030F8FDAE9AC2F8AF06F6
:0108260022AF
:0D006800EF1460060470058D99228D9A2218
:030000000205A650
:1005A600787FE4F6D8FD9000007FFF7E03E4F0A399
:0A05B600DFFCDEFA7581200205FB70
:1005C0000206C7E493A3F8E493A34003F68001F284
:1005D00008DFF48029E493A3F85407240CC8C3333C
:1005E000C4540F4420C8834004F456800146F6DF0B
:1005F000E4800B010204081020408090001DE47E7E
:10060000019360BCA3FF543F30E509541FFEE493FF
:10061000A360010ECF54C025E060A840B8E493A3C6
:10062000FAE493A3F8E493A3C8C582C8CAC583CAF1
:10063000F0A3C8C582C8CAC583CADFE9DEE780BEA9
:0100210000DE
:1003EE0075F008758200EF2FFFEE33FECD33CDCCC6
:1003FE0033CCC58233C5829BED9AEC99E582984049
:10040E000CF582EE9BFEED9AFDEC99FC0FD5F0D625
:10041E00E4CEFBE4CDFAE4CCF9A88222B800C1B94F
:10042E000059BA002DEC8BF084CFCECDFCE5F0CB8D
:10043E00F97818EF2FFFEE33FEED33FDEC33FCEBC6
:10044E0033FB10D703994004EB99FB0FD8E5E4F981
:10045E00FA227818EF2FFFEE33FEED33FDEC33FC6E
:10046E00C933C910D7059BE99A4007EC9BFCE99A62
:10047E00F90FD8E0E4C9FAE4CCFB2275F010EF2FA7
:10048E00FFEE33FEED33FDCC33CCC833C810D707A7
:10049E009BEC9AE899400AED9BFDEC9AFCE899F8E2
:0E04AE000FD5F0DAE4CDFBE4CCFAE4C8F92275
:1004BC00E8600FECC313FCED13FDEE13FEEF13FF1E
:0304CC00D8F12242
:00000001FF
