:10000000020B2FC2C3E5C030E314AFBDEF7002D2C4
:0F001000C4C2C320C3EFC2C6D2C6C2C380E72298
:09002300020E4FE4F591C2C62261
:10003300020036C0E0C0F0C083C082C0D075D000DB
:10004300C000C001C002C003C004C005C006C00791
:1000530090003AE0A3E0FAA3E0F91205A0D007D09C
:1000630006D005D004D003D002D001D000D0D0D028
:1000730082D083D0F0D0E032020E75E508240DF56E
:1000830082E43400F583E005082290000A30070378
:1000930090000DE475F0011205EC0205A62000E9BD
:1000A3007F2ED2008018EF540F2490D43440D4FF15
:1000B30030040BEF24BFB41A0050032461FFE50999
:1000C30060021509050CE50C7002050B30070E9054
:1000D300000AE475F0011205ECEF0203E3020E28B7
:1000E3007403D2078003E4C207F50890000A1206DE
:1000F30003E4F509F50BF50CE50960077F20120011
:10010300C180F5750AFFC201C200C202C203C20563
:10011300C206C20812008DFF700D3007057F001262
:1001230000D2AF0CAE0B22B4255FC2D5C2041200BD
:100133008DFF24D0B40A00501A75F00A780930D51F
:100143000508B6FF0106C6A426F620D5047002D220
:100153000380D924CFB41A00EF5004C2E5D20402BD
:1001630002D3D20180C6D20080C0D20280BCD2D5D5
:1001730080BAD20580B47F201200C1200207740127
:10018300B5090040F112007EFF1200C10200FBD24C
:1001930008D206809512007EFB12007EFA12007EC2
:1001A300F94A4B700679A47A037BFF20022EE509F6
:1001B300602A7E008E827583001205BF60060EEEF4
:1001C300650A70F0C2D5EBC0E0EAC0E0E9C0E0EE3A
:1001D30012031AD0E0F9D0E0FAD0E0FB1205A6FF33
:1001E30060AAEBC0E0EAC0E0E9C0E01200C1D0E0E1
:1001F3002401F9D0E03400FAD0E0FBE50A0460DC26
:10020300D50AD980877BFF7A037916D202809C793D
:100213001080027908C206C2088008D2D5790A8004
:1002230004790AC2D5E50A047002F50AE4FAFDFE70
:10023300FF12007EFC7B0820011312007EFD7B1061
:1002430030000A12007EFE12007EFF7B20EC338218
:10025300D592D55013C3E43000069FFFE49EFEE41D
:100263002001039DFDE49CFCE4CBF8C201EC700C7F
:10027300CFCECDCCE824F8F870F38017C3EF33FF6B
:10028300EE33FEED33FDEC33FCEB33FB994002FB25
:100293000FD8E9EB300105F8D0E0C448B201C0E063
:1002A3000AEC4D4E4F78207B0070C2EAB50A00403D
:1002B300BCC0E012031CD0F0D0E0200104C4C0E0B5
:1002C300C4B201C0F01200AAD0F0D5F0EB0200FBDB
:1002D30012060C01985302125801694C016542023F
:1002E300164F021E44021E49017E43022455020892
:1002F3004602084502084703C450016D2D01712EC3
:1003030001942B01752301922003AD2A012D48008E
:1003130000018C3F3F3F00790AA2D520031430052A
:1003230009B910020404B9080104A2D52006025039
:1003330001042002689202B509005034C0E07F2016
:100343003003197F30A20272067205500F12037335
:10035300C202C206C205C2087F30800F300503E91E
:10036300C0E01200C1300503D0E0F9D0E0B509CCFC
:100373003005177F30B9100C1200C17F58300407C5
:100383007F788003B908031200C13002057F2D0274
:1003930000C17F202008F87F2B2006F322920280E1
:1003A300CF286E756C6C2900D20112007E3001F8E3
:1003B300C201780930D50108F602012D2D504349B9
:1003C3005812007E2403B405004001E49003BF9358
:1003D3001200B2743A1200B2D20375090402021277
:1003E300BB010689828A83F0225002F722BBFE01F9
:1003F300F322E88FF0A4CC8BF0A42CFCE98EF0A4BC
:100403002CFC8AF0EDA42CFCEA8EF0A4CDA8F08B92
:10041300F0A42DCC3825F0FDE98FF0A42CCD35F0D8
:10042300FCEB8EF0A4FEA9F0EB8FF0A4CFC5F02E69
:10043300CD39FEE43CFCEAA42DCE35F0FDE43CFCD2
:100443002275F008758200EF2FFFEE33FECD33CD1A
:10045300CC33CCC58233C5829BED9AEC99E5829867
:10046300400CF582EE9BFEED9AFDEC99FC0FD5F066
:10047300D6E4CEFBE4CDFAE4CCF9A88222B800C1DD
:10048300B90059BA002DEC8BF084CFCECDFCE5F04A
:10049300CBF97818EF2FFFEE33FEED33FDEC33FC91
:1004A300EB33FB10D703994004EB99FB0FD8E5E43A
:1004B300F9FA227818EF2FFFEE33FEED33FDEC331C
:1004C300FCC933C910D7059BE99A4007EC9BFCE9AB
:1004D3009AF90FD8E0E4C9FAE4CCFB2275F010EFE7
:1004E3002FFFEE33FEED33FDCC33CCC833C810D72A
:1004F300079BEC9AE899400AED9BFDEC9AFCE8997E
:10050300F80FD5F0DAE4CDFBE4CCFAE4C8F922EB3A
:100513009FF5F0EA9E42F0E99D42F0E89C45F02207
:10052300E8600FECC313FCED13FDEE13FEEF13FFB6
:10053300D8F122ECF0A3EDF0A3EEF0A3EFF022A8A4
:10054300828583F0D083D082120559120559120592
:1005530059120559E473E493A3C583C5F0C583C851
:10056300C582C8F0A3C583C5F0C583C8C582C822A8
:10057300D083D082F8E4937012740193700DA3A317
:1005830093F8740193F5828883E473740293B5F04E
:10059300067403936860E9A3A3A3A380D88A83891D
:1005A30082E473BB010689828A83E0225002E72238
:1005B300BBFE02E32289828A83E49322BB010CE51A
:1005C3008229F582E5833AF583E0225006E9258204
:1005D300F8E622BBFE06E92582F8E222E58229F548
:1005E30082E5833AF583E49322F8E0FBA3A3E0F9E1
:1005F30025F0F0E582158270021583E0FA38F022C7
:10060300EBF0A3EAF0A3E9F022D083D082F8E493DD
:100613007012740193700DA3A393F8740193F58280
:100623008883E4737402936860EFA3A3A380DF90CD
:100633000001120536900005E01460621470030295
:10064300075024026003020815759850438920431C
:100653008780438E10A2AF920EC2AF75C7AA75C72B
:1006630055E4F591A20E92AF53C4DF7B10FAF9F86B
:10067300900001E0FCA3E0FDA3E0FEA3E0FF120471
:1006830080900006E0F8A3E0F9A3E0FAA3E0FB12F0
:100693000480EFF404F58DD28ED2AC020815759860
:1006A3005043878053C4F8A2AF920EC2AF75C7AA56
:1006B30075C755E4F591A20E92AF43C4207B10FA9F
:1006C300F9F8900001E0FCA3E0FDA3E0FEA3E0FF46
:1006D300120480900006E0F8A3E0F9A3E0FAA3E097
:1006E300FB120480C3E49FFFE49EFE74019DFDE4BE
:1006F3009CFC78081205238FC6E47B10FAF9F89066
:100703000001E0FCA3E0FDA3E0FEA3E0FF120480F0
:10071300900006E0F8A3E0F9A3E0FAA3E0FB1204DB
:1007230080C3E49FFFE49EFE74019DFDE49CFCEF07
:10073300E48FC5A2AF920EC2AF75C7AA75C755F5B0
:1007430091A20E92AF43C408D2AC020815A2AF9295
:100753000EC2AF75C7AA75C755E4F591A20E92AF45
:1007630053B3BF53B4BFA2AF920EC2AF75C7AA753E
:10077300C755F591A20E92AF43B10453B2FB75F87E
:100783005075C4807B10FAF9F8900001E0FCA3E0F7
:10079300FDA3E0FEA3E0FF120480900006E0F8A3AF
:1007A300E0F9A3E0FAA3E0FB120480C3E49FFFE4B3
:1007B3009EFE74019DFDE49CFC78081205238FC600
:1007C300E47B10FAF9F8900001E0FCA3E0FDA3E05C
:1007D300FEA3E0FF120480900006E0F8A3E0F9A373
:1007E300E0FAA3E0FB120480C3E49FFFE49EFE74DF
:1007F300019DFDE49CFCEFE48FC5A2AF920EC2AF56
:1008030075C7AA75C755F591A20E92AF43C40843A5
:100813009C01D2AF22E4F591EF24F9600C14600E31
:100823002402700D75A638800875A630800375A65E
:1008330030A2AF920EC2AF75C7AA75C755439F01C9
:10084300A20E92AFE4F5A775AF04A2AF920EC2AFAA
:1008530075C7AA75C75543A401A20E92AF85AE080A
:1008630005A6A2AF920EC2AF75C7AA75C75543A41A
:1008730001A20E92AF85AE09EF24F87076E5082544
:10088300E0FFE433FEE50954017C002FFFEC3EFE5C
:1008930074F22FFF74FF3EFE75AF0C75A601E4F5ED
:1008A300A7A2AF920EC2AF75C7AA75C75543A401DD
:1008B300A20E92AFADAEED644B600EADAEED6452E1
:1008C3006007ADAEED6453701EE508543FF50AC3EF
:1008D300940774809480500A74F62FFF74FF3EFED1
:1008E3008005EF1F70011EEF5401F509EEC313EFEE
:1008F30013F50875C7AA75C75585088475C7AA7502
:10090300C755850985A2AF920EC2AF75C7AA75C731
:1009130055539FFEA20E92AF22900001120536534B
:100923008EF75389F04389017B407A42790F78002F
:10093300900001E0FCA3E0FDA3E0FEA3E0FF1204AE
:1009430080A804A905AA06AB07900007E0FEA3E070
:10095300FFE4FCFD1203F5E47B0CFAF9F8120480C2
:10096300C374FF9FFF74FF9EFEE49DFDE49CFCEFB8
:10097300E4900009EFF07B407A42790F7800900011
:1009830001E0FCA3E0FDA3E0FEA3E0FF120480A8C6
:1009930004A905AA06AB07900007E0FEA3E0FFE465
:1009A300FCFD1203F5E47B0CFAF9F8120480C3741E
:1009B300FF9FFF74FF9EFEE49DFDE49CFC780812FC
:1009C3000523900005E07002A3E06021900009E098
:1009D300F58A8F8CD28C308DFDC28DC28C9000062F
:1009E300E024FFF0900005E034FFF080D5227F067D
:1009F300120818A2AF920EC2AF75C7AA75C755E405
:100A0300F591A20E92AF43B10843B208A2AF920E82
:100A1300C2AF75C7AA75C755F591A20E92AF43B180
:100A23001043B210A2AF920EC2AF75C7AA75C755D5
:100A3300759101A20E92AF43B108A2AF920EC2AF5D
:100A430075C7AA75C755F591A20E92AFA2AF920EC4
:100A5300C2AF75C7AA75C755759101A20E92AF4370
:100A6300B110A2AF920EC2AF75C7AA75C755F59163
:100A7300A20E92AF900005120542000186A07F00EE
:100A83007E367D6E7C01120E9B7F01120EBED2AFAD
:100A930022900001EEF0A3EFF0A3EBF0A3EAF0A3A2
:100AA300E9F0A312054200000000C20C90003A7462
:100AB300FFF0A3740CF0A37458F0900001E0FFA3BF
:100AC300E0900036CFF0A3EFF0E4F5917BFF7A0FCF
:100AD300792C1200E9D2C5900006E0FCA3E0FDA347
:100AE300E0FEA3E02401FFE43EFEE43DFDE43CFC24
:100AF300900006120536300C1690003DE0FF900082
:100B030003E0FBA3E0FAA3E0F9EF1203E3D3227FB0
:100B1300A07E867D017C00900006E0F8A3E0F9A3A7
:100B2300E0FAA3E0FBD312051240AC22787FE4F68F
:100B3300D8FD9000007FFF7E03E4F0A3DFFCDEFA24
:100B4300758121020B84020D61E493A3F8E493A35E
:100B53004003F68001F208DFF48029E493A3F854FC
:100B630007240CC8C333C4540F4420C8834004F47F
:100B730056800146F6DFE4800B0102040810204092
:100B830080900DFDE47E019360BCA3FF543F30E5EC
:100B930009541FFEE493A360010ECF54C025E06007
:100BA300A840B8E493A3FAE493A3F8E493A3C8C5D5
:100BB30082C8CAC583CAF0A3C8C582C8CAC583CAC6
:100BC300DFE9DEE780BE900001EEF0A3EFF0A3EDD6
:100BD300F0A312054200000000C20D90003A74FF1A
:100BE300F0A3740CF0A374E3F0900001E0FFA3E022
:100BF300900038CFF0A3EFF0900003E0FF90003EA9
:100C0300F0E4F5917BFF7A0F791190000DEFF0126C
:100C130000E9D2C5900004E0FCA3E0FDA3E0FEA33D
:100C2300E02401FFE43EFEE43DFDE43CFC900004CF
:100C3300120536300D02D3227FA07E867D017C0013
:100C4300900004E0F8A3E0F9A3E0FAA3E0FBD312D9
:100C5300051240C022C091E4F5917BFF7A0E79F929
:100C63001200E97BFF7A0E79E890000DE5BDF012E2
:100C730000E9AFBDEF24F8601C24F8604824F86055
:100C83001B24F0602524E8604324F0604324507063
:100C930049D2C48045C2C575BCA0803E900036E0F1
:100CA300F5BC9000347401F08030900034E06011A2
:100CB300900036E0A3E0F5BCE4900034F0A3F080AC
:100CC30019D2C58015C2C575BCA1800ED2C2800AD7
:100CD30090003DE5BCF0D2C4D20C120003D09122A7
:100CE300C091E4F5917BFF7A0E79CF1200E97BFF87
:100CF3007A0E79E890000DE5BDF01200E9AFBDEF83
:100D030024F8601024F0601324F0601D2428704838
:100D1300D2C48044C2C575BCA0803D900036E0F5C6
:100D2300BC9000327401F0802F900032E06011908B
:100D33000038E0A3E0F5BCE4900032F0A3F08018A3
:100D4300900033E0700E90003EE0F5BC900033E07D
:100D530004F08004D20DD2C4120003D09122120DEC
:100D6300C87BFF7A0F79481200E91209F17D55E437
:100D7300FFFE120BC95048900005E4F0A37405F080
:100D8300A37403F0A374E8F07F007E367D6E7C01CC
:100D930012091C7B017A007900E4FFFE120A9450C9
:100DA3001E900000E06455700DF5917BFF7A0F797A
:100DB3005F1200E980097BFF7A0F797E1200E91246
:100DC300002680FE22A2AF920EC2AF75C7AA75C7D6
:100DD30055E4F591A20E92AF53B1BF53B2BF900049
:100DE30005F0A31205420001C2007F007E367D6E2E
:100DF3007C01120632D299D2092242003800004106
:100E0300003E00420036000041003D00C10DC10C10
:100E130041003200410033004100340041003500FD
:100E2300C109C10A00EFB40A07740D120E33740A24
:100E3300309811A899B8130CC2983098FDA899C29C
:100E430098B811F63099FDC299F59922C0E0C08394
:100E5300C082C09130980AD20A90003FE599F0C24F
:100E630098309905200902C299D091D082D083D0BD
:100E7300E032C0E0C083C082C09130F80AC2F8906B
:100E83000040E59AF0D20B30F905200902C2F9D0EF
:100E930091D082D083D0E032E4F5917B04FAF9F863
:100EA300120480900005E0F8A3E0F9A3E0FAA3E0C0
:100EB300FB120480EF14F5BED2C622E4F591EF6075
:100EC30007147007439B0122539BFE220A204932D9
:100ED30043205472616E736D697420496E74657238
:100EE30072757074000A20493253544154203D20D6
:100EF3003078254244000A20493243205265636515
:100F030069766520496E74657272757074000A2083
:100F13005772697465206E32344C433634206461F1
:100F23007461203078256264000A20526563656924
:100F3300766520646174612066726F6D206E323451
:100F43004C433634000A2049324320454550524F22
:100F53004D20696E7469616C2E2E2E000A20454562
:100F630050524F4D20777269746520616E64207210
:100F730065616420506173732120000A2046414952
:040F83004C212000DD
:00000001FF
